:02000002B0004C
:1040000000400B00C6530B00000006000C00050228
:084010000401B41400000000DB
:04401800CC500B007D
:10401C00034613F8012B002AFBD1181A01387047FC
:10402C0009480A49884208B505D0094A824202D09B
:10403C00121A00F09BFF0748074A0021121A00F0E1
:10404C00A3FF014808BD00BF40E603202C530B0022
:10405C00ACE60320ACE60320F0E7032070B5074E76
:10406C00074C00F03DFEA41BA4080025AC4200D177
:10407C0070BD56F8043B98470135F7E7E4520B0046
:10408C0008530B0000F013B808B500F021F8BDE898
:10409C00084000F0DDBD00F02DBA00F033BA007816
:1040AC00B0FA80F04009704701230370704708B5DF
:1040BC000121072000F084FE00210E2000F080FE7C
:1040CC0000F040FDBDE808404FF4165100F02EBD45
:1040DC00F7B50A24002740F2FF360E2000F081FECF
:1040EC0080B2874238BF0746864228BF0646642006
:1040FC0000F02CFA013CF0D10E2000F072FEFF23F0
:10410C0085B23A46009331462346284600F012FA0F
:10411C00C4B22146072000F07BFE00F013FD0F49CE
:10412C0000F002FC00F00EFD0A222946064600F0C3
:10413C000EFC304600F0FFFB00F004FD084900F0D7
:10414C00F3FB00F0FFFC0A222146054600F0FFFBC2
:10415C00284603B0BDE8F04000F0EDBBE0500B008A
:10416C00EF500B0010B5074B074A9A600024C3E9C7
:10417C000044032000F02AF921460120BDE810403C
:10418C0000F034B9ACE603200000FFFF08B5024B89
:10419C001B685B6C019308BD4802030008B5024B19
:1041AC001B685B68019308BD1802030008B5024B3D
:1041BC001B685B69019308BD1802030008B5024B2C
:1041CC001B685B68019308BD2C02030008B5024B09
:1041DC001B689B68019308BD2C02030008B5024BB9
:1041EC001B68DB68019308BD2C02030008B5024B69
:1041FC001B689B6A019308BD2C02030008B5024B97
:10420C001B681B6B019308BD2C02030008B5024B05
:10421C001B689B6F019308BD2C02030008B5024B71
:10422C001B681B6A019308BD2802030008B5024BEA
:10423C001B685B6A019308BD2802030008B5024B9A
:10424C001B689B6A019308BD2802030008B5024B4A
:10425C001B68DB6A019308BD2802030008B5024BFA
:10426C001B681B6B019308BD2802030008B5024BA9
:10427C001B685B6B019308BD2802030008B5024B59
:10428C001B681B6C019308BD2802030008B5024B88
:10429C001B685B69019308BD6402030008B5024BFF
:1042AC001B689B68019308BD6802030008B5024BAC
:1042BC001B68DB68019308BD6802030008B5024B5C
:1042CC001B68DB69019308BD3002030008B5024B83
:1042DC001B681B6A019308BD3002030008B5024B32
:1042EC001B68DB68019308BD3C02030008B5024B58
:1042FC001B681B69019308BD3C02030008B5024B07
:10430C001B685B69019308BD3C02030008B5024BB6
:10431C001B689B69019308BD3C02030008B5024B66
:10432C001B68DB69019308BD3C02030008B5024B16
:10433C001B681B6A019308BD3C02030008B5024BC5
:10434C001B689B6A019308BD3C02030008B5024B35
:10435C001B681B6C019308BD3C02030008B5024BA3
:10436C001B681B68019308BD4C02030008B5024B87
:10437C001B685B68019308BD4C02030008B5024B37
:10438C001B681B69019308BD4C02030008B5024B66
:10439C001B685B69019308BD4C02030008B5024B16
:1043AC001B689B69019308BD4C02030008B5024BC6
:1043BC001B68DB69019308BD4C02030008B5024B76
:1043CC001B681B6A019308BD4C02030008B5024B25
:1043DC001B685B68019308BD2002030008B5024B03
:1043EC001B685B69019308BD2002030008B5024BF2
:1043FC001B68DB6A019308BD2002030008B5034B60
:10440C001B68D3F88830019308BD0000200203001C
:10441C0008B5034B1B68D3F89430019308BD00001A
:10442C002002030008B5024B1B68DB6B019308BD2F
:10443C004402030008B5024B1B685B68019308BD7E
:10444C004002030008B5024B1B689B68019308BD32
:10445C004002030008B5024B1B68DB68019308BDE2
:10446C004002030008B5024B1B681B69019308BD91
:10447C004002030008B5024B1B685B69019308BD41
:10448C004002030008B5024B1B689B69019308BDF1
:10449C004002030008B5024B1B68DB69019308BDA1
:1044AC004002030008B5024B1B681B6A019308BD50
:1044BC004002030008B5024B1B681B6B019308BD3F
:1044CC004002030008B5024B1B685B6B019308BDEF
:1044DC004002030008B5024B1B681B6C019308BD1E
:1044EC004002030008B5024B1B685B6C019308BDCE
:1044FC004002030008B5024B1B681B68019308BD02
:10450C001C02030008B5024B1B685B68019308BDD5
:10451C001C02030008B5024B1B681B6C019308BD01
:10452C001C02030008B5024B1B685B6C019308BDB1
:10453C001C0203008A4210B507D0441A0298C01A14
:10454C004443501A94FBF0F0184410BD0021FFF7BF
:10455C0045BF0000024800230360FFF717BE00BFF1
:10456C00B8E60320002240681146FFF79BBF0022EB
:10457C0040681146FFF7A6BF40680022FFF79ABFBC
:10458C004068002281F00101FFF784BF00234068DE
:10459C001A461946FFF776BF002340681A4619469B
:1045AC00FFF768BF002240681146FFF75BBF00228F
:1045BC0040681146FFF746BF406800220221FFF712
:1045CC0049BF002340681A46FFF734BF024B032251
:1045DC005A60024A1A607047BCE6032008510B006F
:1045EC007047F8B5064615460C468F18BC4206D0E7
:1045FC00336814F8011B9B6830469847F6E7284649
:10460C00F8BD007C0022FFF709BE007C0021FFF7FB
:10461C000DBE007C0021FFF711BE007C0021FFF7CE
:10462C0015BE007C0021FFF719BE10B514210446FD
:10463C00FFF733FD204610BD38B5044615464FF440
:10464C007A730022C4E90123094B217408462360C4
:10465C002946FFF713FEBF3008D16B69DB0705D580
:10466C006868FFF74FFFE868FFF74CFF204638BD3E
:10467C0044510B00704710B518210446FFF70DFD8F
:10468C00204610BDF0B5037D062B8DB00E4600F113
:10469C0004074FF0000412D000F1080515F8011DB5
:1046AC000A22304600F053F9AF42044419D0002CD2
:1046BC00F4D02E21304600F03BF90444EEE72F23D2
:1046CC006A4639460A208DF80040FFF7DFFD684640
:1046DC00FFF79EFC33680246DB6869463046984714
:1046EC00044620460DB0F0BD10B5054B0446112212
:1046FC0040F8043B002100F047FC204610BD00BFF1
:10470C006C510B000346074A10B543F8042B01F11A
:10471C00100251F8044B43F8044B9142F9D10A783A
:10472C001A7010BD6C510B0010B59DF8084044EA8E
:10473C00032343EA024242EA016104234160037508
:10474C0010BD000007B5064B0360CB7800938B7847
:10475C004A780978FFF7E8FF03B05DF804FB00BF67
:10476C006C510B00014B024A1A607047C4E60320DF
:10477C0078510B00002340681A46FFF75BBE406877
:10478C0000220221FFF766BE002240681146FFF7A7
:10479C0059BE002240681146FFF764BE00234068F2
:1047AC001A461946FFF766BE002340681A4619469A
:1047BC00FFF768BE40680021FFF78CBE40680021FF
:1047CC00FFF790BE4068002281F00101FFF762BE46
:1047DC0040680022FFF76EBE002240681146FFF7CA
:1047EC0071BE002240681146FFF75CBE2DE9F04314
:1047FC0095B014460D460746FFF776FF00211C22A4
:10480C000DA8009100F0C0FB40230C9320466B4692
:10481C000CAA0021FFF74AFD044600284BD10246A2
:10482C0001216868FFF71EFE022180462246686857
:10483C00FFF718FE009E81462146002E3BD0002932
:10484C0039D17368022B03D00A2B11D0F669F4E727
:10485C00B8F1000FFAD0716906A8043107ADFFF763
:10486C0071FF0FCD3C1D0FC42B6823704146EDE743
:10487C00B9F1000FEAD07469102201A800F084FB92
:10488C0006238DF8143001AD04F1080318341868B0
:10489C0059682A4603C20833A3421546F7D101A929
:1048AC0006A807ADFFF72EFF0FCD3C1D0FC42B68DC
:1048BC0023704946CAE70098FFF7F0FC384615B05C
:1048CC00BDE8F083024B034A1A6000225A6070471D
:1048DC00C8E6032084510B00F8B506460D468F1828
:1048EC000024BD420CD0336815F8011B9B68304680
:1048FC009847031E01DB1C44F3E7002C08BF1C4641
:10490C002046F8BD13B50446084659B10191FFF78E
:10491C007FFB23680199DB680246204602B0BDE8A4
:10492C001040184702B010BD08B5FFF7EBFF08BDEB
:10493C0003689B68184738B50D210546FFF7F8FF4B
:10494C000A2104462846FFF7F3FF204438BD30B552
:10495C008BB00023012A8DF8243098BF0A2209ACB1
:10496C000D46B1FBF2F101FB125303F0FF03092BCF
:10497C0094BF30333733DBB2AA4204F8013DEFD990
:10498C002146FFF7BFFF0BB030BD0000014B0022EA
:10499C009A607047D0E6032010B504460846217093
:1049AC00FFF78CFC00236360204610BD054B0222F0
:1049BC001A60054B054A9A600020C3E90000FFF716
:1049CC0005BD00BFECE60320E0E603200000FFFF7E
:1049DC00024B1A68024B1A60704700BF40E6032076
:1049EC00F0E6032070474174704708B5007CFFF770
:1049FC00A5FC20EAE07008BD08B5007CFFF776FC4A
:104A0C0020EAE07008BD08B5007CFFF77FFC40EAA7
:104A1C00E07008BD08B5007CFFF770FC40EAE07060
:104A2C0008BD007CFFF77ABC37B5457C04462DB138
:104A3C00207C03B0BDE83040FFF750BC007C0191F6
:104A4C00FFF77CFC00280199F2DC284603B030BD4E
:104A5C0010B514210446FFF720FB204610BD0000C2
:104A6C0010B54FF47A730446084611460022C4E987
:104A7C000123044B2360012320746374FFF766FC4D
:104A8C00204610BDDC510B004174704770477047D5
:104A9C0008B50021007CFFF781FC40EAE07008BDFE
:104AAC0008B50121007CFFF779FC40EAE07008BDF5
:104ABC0008B5007CFFF76AFC20EAE07008BD08B579
:104ACC00007CFFF75BFC20EAE07008BD13B50446E0
:104ADC00007C0191FFF75AFC0028019901DC607CF5
:104AEC0020B1207CFFF762FC20EAE07002B010BD20
:104AFC00007CFFF763BC10B514210446FFF7CDFA18
:104B0C00204610BD10B54FF47A73044608460021B8
:104B1C00C4E90113044B2360012320746374114610
:104B2C00FFF71CFC204610BD0C520B00007C002231
:104B3C00FFF71CBC10B514220446002100F024FA27
:104B4C00204610BD10B50F4C88B003A8FFF7F2FF3C
:104B5C002178BFF35B8F11F001010FD12046019139
:104B6C00FFF79DFA019948B103AA0748FFF7CAFF5E
:104B7C002046FFF799FA054800F0F2F9024808B010
:104B8C0010BD00BFF4E60320F8E60320994A0B00A1
:104B9C00002240681146FFF765BC002240681146B0
:104BAC00FFF780BC002240681146FFF78BBC4068C1
:104BBC000022FFF77FBC4068002281F00101FFF763
:104BCC0069BC002340681A461946FFF75BBC0023FA
:104BDC0040681A461946FFF74DBC00224068114642
:104BEC00FFF730BC406800220221FFF733BC0023E2
:104BFC0040681A46FFF71EBC024B04225A60024A58
:104C0C001A6070470CE703203C520B00014B1860F4
:104C1C00704700BF44E6032008B50B4B43B1FFF7C8
:104C2C0091FF03681B699847002801DDAFF30080F2
:104C3C00064B43B100F06EF903681B6998470028D6
:104C4C0001DDAFF3008008BD000000000000000093
:104C5C0008B5FFF7E1FFFFF7A9FA014B186008BD93
:104C6C0028E703200548064A064908B5121A00F041
:104C7C007DF9054B054A1A6008BD00BF00F40320FE
:104C8C0004F4032098530B0000F403201E1C279AF5
:104C9C0007B5002300931A466FF07701FFF7B8FBB6
:104CAC0003B05DF804FB000007B543880A2B08D05D
:104CBC00502B0BD1094B1B684BB103B05DF804EBC7
:104CCC001847FFF7E5FF03B05DF804FB00230093E2
:104CDC001A466FF07701FFF79BFBF4E718E7032008
:104CEC0010B512480021FFF71DFC114B1A68114B2F
:104CFC009A42114B0CBF012200221A7001D0FFF70F
:104D0C00B1FFFFF74BFA044600F046F90B4B13B119
:104D1C002046AFF3008000210848FFF783FBBDE875
:104D2C00104007480021FFF769BB00BF194C0B006E
:104D3C0000F403201E1C279A14E703200000000037
:104D4C00B54C0B00232813B502D9002002B010BDBE
:104D5C00A0F10B03022B1AD8174C2178BFF35B8FF1
:104D6C0011F001010BD120460191FFF798F901993F
:104D7C0028B11248FFF710FE2046FFF795F90F4BAC
:104D8C001878FFF7A3FA0028DFD10120DEE701280D
:104D9C0009D800F07FF80021007CFFF767FA80F05B
:104DAC000100C0B2D2E709380128EED800F0B2F801
:104DBC00007CFFF7BBFAF2E71CE7032020E7032097
:104DCC00232838B504460D460AD8FF2908D0FFF72A
:104DDC00B9FF28B129462046BDE83840FFF7F6B99F
:104DEC0038BD0D2810B504469CBF0E34A4B2204625
:104DFC00FFF7A8FF50B103212046FFF7DFF9032886
:104E0C0004D12046BDE81040FFF7F8B9002010BDD2
:104E1C0038B504460D46FFF795FFF0B10421204646
:104E2C00FFF7CCF9042805D1A9B22046BDE83840DB
:104E3C00FFF7DCB902212046FFF7C0F902280CD19C
:104E4C002046FFF7CBF9012801D0042805D12946CB
:104E5C002046BDE83840FFF7D9B938BD704700008F
:104E6C0038B50A4B036001230446436108492020EE
:104E7C0000F074F8202560600549A560284600F014
:104E8C006DF8C4E90305204638BD00BF18000100C9
:104E9C0070520B0030B50E4D2978BFF35B8F11F0BB
:104EAC00010487B011D12846FFF7F9F868B16846BC
:104EBC00FFF7D6FF6A4621460648FFF7BDFB28469A
:104ECC00FFF7F2F8044800F04BF8024807B030BD89
:104EDC002CE7032030E70320694E0B0070470000DD
:104EEC0038B5044614252A46002100F04DF82580DB
:104EFC004025074925812846258200F02FF80449D2
:104F0C006060284600F02AF8E060204638BD00BFFB
:104F1C0070520B0030B50E4D2978BFF35B8F11F03A
:104F2C00010487B011D12846FFF7B9F868B101A880
:104F3C00FFF7D6FF01AA21460648FFF791FD284648
:104F4C00FFF7B2F8044800F00BF8024807B030BD88
:104F5C0044E7032048E70320E94E0B00FFF79BB81A
:104F6C00002301461A46184600F044B80A44914200
:104F7C0000F1FF3300D1704710B511F8014B03F865
:104F8C00014F9142F9D110BD02440346934200D126
:104F9C00704703F8011BF9E738B5104B1D68AB6B74
:104FAC000446B3B91820FFF7A5FA0246A86320B946
:104FBC000B4B0C484221FFF7ADFA0B490B4BC0E9E8
:104FCC0000130B4B83600B23838100210120C2E96A
:104FDC000401AB6B00221C615A6138BD44E603200E
:104FEC0071520B0088520B000E33CDAB34126DE6B0
:104FFC00ECDE05002DE9F843DFF8B8800646D8F85A
:10500C0000001F460D46914600F056F8254B1C68D3
:10501C0034B9254C1C60254B13B11B68C4F888307F
:10502C0063681F2B07DDD8F8000000F047F84FF03D
:10503C00FF30BDE8F8834EB3D4F8880088B91C4B18
:10504C0023B9D8F8000000F038F8F0E74FF484707A
:10505C00FFF750FA0028F4D00023C0E94033C4F81D
:10506C008800636840F8239001229A4000EB83018A
:10507C00D0F800311343C0F80031022EC1F8807013
:10508C0002BFD0F804311343C0F804316368D8F878
:10509C0000005A1C0233626044F8235000F00EF8F2
:1050AC000020C6E7E8E703205CE7032000000000CF
:1050BC0001450B00A8E603207047704770470000BD
:1050CC002D400B0069400B0091400B0095400B00EC
:1050DC000000000053656E736F722056616C75652D
:1050EC003A20004D61707065642056616C75653AAC
:1050FC00200000000000000000000000CF450B0065
:10510C00C5450B00BB450B00B1450B00A5450B007D
:10511C0099450B00C1470B00C9470B008D450B008F
:10512C0085450B007B450B0071450B00F9470B00C7
:10513C000000000000000000ED450B0037460B009E
:10514C000F460B00EF450B0017460B001F460B00DC
:10515C0027460B002F460B0000000000000000004B
:10516C0091460B0081460B0083460B00617070006A
:10517C00000000000000000081470B008B470B0073
:10518C0095470B009F470B00A9470B00B5470B0039
:10519C00C1470B00C9470B00D1470B00DD470B0083
:1051AC00E5470B00EF470B00F9470B0025592D2560
:1051BC006D2D25645425483A254D3A2553257A0002
:1051CC0061736374696D65000000000000000000ED
:1051DC00F1490B005D4A0B00354A0B00E5480B000A
:1051EC00054A0B00214A0B00134A0B002F4A0B00F7
:1051FC00F3490B00F7490B00000000000000000011
:10520C009B4A0B00034B0B00D94A0B00E5480B00E3
:10521C00CB4A0B009D4A0B00AD4A0B00FD4A0B001C
:10522C00BD4A0B00954A0B00000000000000000076
:10523C00FB4B0B00F14B0B00E74B0B009D4B0B009A
:10524C00DB4B0B00CF4B0B00C1470B00C9470B00CE
:10525C00C34B0B00BB4B0B00B14B0B00A74B0B0014
:10526C00F9470B00005245454E54206D616C6C6F34
:10527C006320737563636565646564002F746D707A
:10528C002F6A656E6B696E732D4743432D31302D3C
:10529C00706970656C696E652D34385F32303230F0
:1052AC00313132345F313630363138303633392F94
:1052BC007372632F6E65776C69622F6E65776C699C
:1052CC00622F6C6962632F7374646C69622F7261F4
:1052DC006E642E630000000071410B0061450B00F1
:1052EC00D9450B0071470B00D1480B0099490B00B5
:0C52FC00B9490B00DD490B00054C0B000C
:10530800040000001400000003000000474E550090
:105318003E0027BC81D4A64DA14C56ADFF05845D47
:045328002702C20C8A
:10532C00CC510B0048E603200000000000000000F8
:10533C000000000000000000000000000000000061
:10534C000000000000000000000000000000000051
:10535C000000000000000000000000000000000041
:10536C000000000000000000000000000000000031
:10537C000000000000000000000000000000000021
:0C538C000000000000000000ECE703201F
:045398000000000011
:1053A20000000102030405060708090A0B0C0D0E92
:1053B2000F101112131415161718191A1B1C1D1E83
:0453C2001F20280080
:0453C60078563412CF
:04000003B000401CED
:00000001FF
